{
  "contractName": "EventManager",
  "abi": [
    {
      "constant": false,
      "inputs": [
        {
          "internalType": "string",
          "name": "_id",
          "type": "string"
        },
        {
          "internalType": "string",
          "name": "_name",
          "type": "string"
        },
        {
          "internalType": "string",
          "name": "_description",
          "type": "string"
        },
        {
          "internalType": "string",
          "name": "_startDate",
          "type": "string"
        },
        {
          "internalType": "string",
          "name": "_dueDate",
          "type": "string"
        },
        {
          "internalType": "int256",
          "name": "_headcount",
          "type": "int256"
        },
        {
          "internalType": "uint256",
          "name": "_fee",
          "type": "uint256"
        }
      ],
      "name": "createEvent",
      "outputs": [
        {
          "internalType": "bool",
          "name": "",
          "type": "bool"
        }
      ],
      "payable": true,
      "stateMutability": "payable",
      "type": "function"
    },
    {
      "constant": true,
      "inputs": [
        {
          "internalType": "string",
          "name": "_id",
          "type": "string"
        }
      ],
      "name": "getEventById",
      "outputs": [
        {
          "components": [
            {
              "internalType": "address payable",
              "name": "organizer",
              "type": "address"
            },
            {
              "internalType": "string",
              "name": "id",
              "type": "string"
            },
            {
              "internalType": "string",
              "name": "name",
              "type": "string"
            },
            {
              "internalType": "string",
              "name": "description",
              "type": "string"
            },
            {
              "internalType": "string",
              "name": "startDate",
              "type": "string"
            },
            {
              "internalType": "string",
              "name": "dueDate",
              "type": "string"
            },
            {
              "internalType": "int256",
              "name": "headcount",
              "type": "int256"
            },
            {
              "internalType": "uint256",
              "name": "fee",
              "type": "uint256"
            },
            {
              "internalType": "bool",
              "name": "claimed",
              "type": "bool"
            }
          ],
          "internalType": "struct EventManager.Event",
          "name": "",
          "type": "tuple"
        }
      ],
      "payable": false,
      "stateMutability": "view",
      "type": "function"
    },
    {
      "constant": true,
      "inputs": [],
      "name": "getAllEvent",
      "outputs": [
        {
          "components": [
            {
              "internalType": "address payable",
              "name": "organizer",
              "type": "address"
            },
            {
              "internalType": "string",
              "name": "id",
              "type": "string"
            },
            {
              "internalType": "string",
              "name": "name",
              "type": "string"
            },
            {
              "internalType": "string",
              "name": "description",
              "type": "string"
            },
            {
              "internalType": "string",
              "name": "startDate",
              "type": "string"
            },
            {
              "internalType": "string",
              "name": "dueDate",
              "type": "string"
            },
            {
              "internalType": "int256",
              "name": "headcount",
              "type": "int256"
            },
            {
              "internalType": "uint256",
              "name": "fee",
              "type": "uint256"
            },
            {
              "internalType": "bool",
              "name": "claimed",
              "type": "bool"
            }
          ],
          "internalType": "struct EventManager.Event[]",
          "name": "",
          "type": "tuple[]"
        }
      ],
      "payable": false,
      "stateMutability": "view",
      "type": "function"
    },
    {
      "constant": true,
      "inputs": [
        {
          "internalType": "string",
          "name": "_id",
          "type": "string"
        }
      ],
      "name": "getEventAttendeesById",
      "outputs": [
        {
          "components": [
            {
              "internalType": "address payable",
              "name": "buyer",
              "type": "address"
            },
            {
              "internalType": "string",
              "name": "firstName",
              "type": "string"
            },
            {
              "internalType": "string",
              "name": "lastName",
              "type": "string"
            },
            {
              "internalType": "string",
              "name": "email",
              "type": "string"
            }
          ],
          "internalType": "struct EventManager.Attendee[]",
          "name": "",
          "type": "tuple[]"
        }
      ],
      "payable": false,
      "stateMutability": "view",
      "type": "function"
    },
    {
      "constant": true,
      "inputs": [
        {
          "internalType": "string",
          "name": "_id",
          "type": "string"
        }
      ],
      "name": "getEventFeeById",
      "outputs": [
        {
          "internalType": "uint256",
          "name": "",
          "type": "uint256"
        }
      ],
      "payable": false,
      "stateMutability": "view",
      "type": "function"
    },
    {
      "constant": true,
      "inputs": [
        {
          "internalType": "string",
          "name": "_id",
          "type": "string"
        }
      ],
      "name": "getEventClaimedById",
      "outputs": [
        {
          "internalType": "bool",
          "name": "",
          "type": "bool"
        }
      ],
      "payable": false,
      "stateMutability": "view",
      "type": "function"
    },
    {
      "constant": true,
      "inputs": [
        {
          "internalType": "string",
          "name": "_id",
          "type": "string"
        }
      ],
      "name": "getEventOwnerById",
      "outputs": [
        {
          "internalType": "address payable",
          "name": "",
          "type": "address"
        }
      ],
      "payable": false,
      "stateMutability": "view",
      "type": "function"
    },
    {
      "constant": false,
      "inputs": [
        {
          "internalType": "string",
          "name": "_eventId",
          "type": "string"
        },
        {
          "internalType": "string",
          "name": "_firstName",
          "type": "string"
        },
        {
          "internalType": "string",
          "name": "_lastName",
          "type": "string"
        },
        {
          "internalType": "string",
          "name": "_email",
          "type": "string"
        }
      ],
      "name": "joinEvent",
      "outputs": [
        {
          "internalType": "bool",
          "name": "",
          "type": "bool"
        }
      ],
      "payable": true,
      "stateMutability": "payable",
      "type": "function"
    },
    {
      "constant": false,
      "inputs": [
        {
          "internalType": "string",
          "name": "_eventId",
          "type": "string"
        }
      ],
      "name": "leaveEvent",
      "outputs": [
        {
          "internalType": "bool",
          "name": "",
          "type": "bool"
        }
      ],
      "payable": true,
      "stateMutability": "payable",
      "type": "function"
    },
    {
      "constant": false,
      "inputs": [
        {
          "internalType": "string",
          "name": "_eventId",
          "type": "string"
        }
      ],
      "name": "claimEvent",
      "outputs": [
        {
          "internalType": "bool",
          "name": "",
          "type": "bool"
        }
      ],
      "payable": true,
      "stateMutability": "payable",
      "type": "function"
    }
  ],
  "bytecode": "0x608060405234801561001057600080fd5b50612f82806100206000396000f3fe6080604052600436106100915760003560e01c8063733aa86911610059578063733aa8691461018e57806395759cc6146101cb578063c311cf5a14610208578063d1aa1bf214610245578063ebe8fe4d1461028257610091565b80630f5904be146100965780631002cdd4146100c6578063372526f6146100f1578063600593cb14610121578063673e557a14610151575b600080fd5b6100b060048036036100ab919081019061227d565b6102b2565b6040516100bd9190612b86565b60405180910390f35b3480156100d257600080fd5b506100db6106a6565b6040516100e89190612b64565b60405180910390f35b61010b60048036036101069190810190612179565b610ab5565b6040516101189190612b86565b60405180910390f35b61013b600480360361013691908101906121ba565b610f16565b6040516101489190612b86565b60405180910390f35b34801561015d57600080fd5b5061017860048036036101739190810190612179565b611120565b6040516101859190612d23565b60405180910390f35b34801561019a57600080fd5b506101b560048036036101b09190810190612179565b6111b1565b6040516101c29190612b86565b60405180910390f35b3480156101d757600080fd5b506101f260048036036101ed9190810190612179565b61124f565b6040516101ff9190612d01565b60405180910390f35b34801561021457600080fd5b5061022f600480360361022a9190810190612179565b61169d565b60405161023c9190612b42565b60405180910390f35b34801561025157600080fd5b5061026c60048036036102679190810190612179565b611956565b6040516102799190612b27565b60405180910390f35b61029c60048036036102979190810190612179565b611a07565b6040516102a99190612b86565b60405180910390f35b600080885114156102f8576040517f08c379a00000000000000000000000000000000000000000000000000000000081526004016102ef90612c01565b60405180910390fd5b60008751141561033d576040517f08c379a000000000000000000000000000000000000000000000000000000000815260040161033490612cc1565b60405180910390fd5b600086511415610382576040517f08c379a000000000000000000000000000000000000000000000000000000000815260040161037990612be1565b60405180910390fd5b6000855114156103c7576040517f08c379a00000000000000000000000000000000000000000000000000000000081526004016103be90612c81565b60405180910390fd5b60008451141561040c576040517f08c379a000000000000000000000000000000000000000000000000000000000815260040161040390612ba1565b60405180910390fd5b6000821015610450576040517f08c379a000000000000000000000000000000000000000000000000000000000815260040161044790612bc1565b60405180910390fd5b6000831415610494576040517f08c379a000000000000000000000000000000000000000000000000000000000815260040161048b90612ca1565b60405180910390fd5b60008090505b6000805490508110156104ff578880519060200120600082815481106104bc57fe5b90600052602060002090600902016001016040516104da9190612af9565b604051809103902014156104f257600091505061069b565b808060010191505061049a565b5060006040518061012001604052803373ffffffffffffffffffffffffffffffffffffffff1681526020018a8152602001898152602001888152602001878152602001868152602001858152602001848152602001600015158152509080600181540180825580915050906001820390600052602060002090600902016000909192909190915060008201518160000160006101000a81548173ffffffffffffffffffffffffffffffffffffffff021916908373ffffffffffffffffffffffffffffffffffffffff16021790555060208201518160010190805190602001906105e9929190611e7b565b506040820151816002019080519060200190610606929190611e7b565b506060820151816003019080519060200190610623929190611e7b565b506080820151816004019080519060200190610640929190611e7b565b5060a082015181600501908051906020019061065d929190611e7b565b5060c0820151816006015560e082015181600701556101008201518160080160006101000a81548160ff021916908315150217905550505050600190505b979650505050505050565b60606000805480602002602001604051908101604052809291908181526020016000905b82821015610aac5783829060005260206000209060090201604051806101200160405290816000820160009054906101000a900473ffffffffffffffffffffffffffffffffffffffff1673ffffffffffffffffffffffffffffffffffffffff1673ffffffffffffffffffffffffffffffffffffffff168152602001600182018054600181600116156101000203166002900480601f0160208091040260200160405190810160405280929190818152602001828054600181600116156101000203166002900480156107dd5780601f106107b2576101008083540402835291602001916107dd565b820191906000526020600020905b8154815290600101906020018083116107c057829003601f168201915b50505050508152602001600282018054600181600116156101000203166002900480601f01602080910402602001604051908101604052809291908181526020018280546001816001161561010002031660029004801561087f5780601f106108545761010080835404028352916020019161087f565b820191906000526020600020905b81548152906001019060200180831161086257829003601f168201915b50505050508152602001600382018054600181600116156101000203166002900480601f0160208091040260200160405190810160405280929190818152602001828054600181600116156101000203166002900480156109215780601f106108f657610100808354040283529160200191610921565b820191906000526020600020905b81548152906001019060200180831161090457829003601f168201915b50505050508152602001600482018054600181600116156101000203166002900480601f0160208091040260200160405190810160405280929190818152602001828054600181600116156101000203166002900480156109c35780601f10610998576101008083540402835291602001916109c3565b820191906000526020600020905b8154815290600101906020018083116109a657829003601f168201915b50505050508152602001600582018054600181600116156101000203166002900480601f016020809104026020016040519081016040528092919081815260200182805460018160011615610100020316600290048015610a655780601f10610a3a57610100808354040283529160200191610a65565b820191906000526020600020905b815481529060010190602001808311610a4857829003601f168201915b5050505050815260200160068201548152602001600782015481526020016008820160009054906101000a900460ff161515151581525050815260200190600101906106ca565b50505050905090565b6000610ac0826111b1565b15610b00576040517f08c379a0000000000000000000000000000000000000000000000000000000008152600401610af790612c41565b60405180910390fd5b60008090505b600183604051610b169190612b10565b908152602001604051809103902080549050811015610f0b573373ffffffffffffffffffffffffffffffffffffffff16600184604051610b569190612b10565b90815260200160405180910390208281548110610b6f57fe5b906000526020600020906004020160000160009054906101000a900473ffffffffffffffffffffffffffffffffffffffff1673ffffffffffffffffffffffffffffffffffffffff161415610efe57610bc683611b26565b506000600184604051610bd99190612b10565b90815260200160405180910390208281548110610bf257fe5b906000526020600020906004020160000160009054906101000a900473ffffffffffffffffffffffffffffffffffffffff1690506000610c3185611120565b905060008390505b60018087604051610c4a9190612b10565b90815260200160405180910390208054905003811015610dc457600186604051610c749190612b10565b90815260200160405180910390206001820181548110610c9057fe5b9060005260206000209060040201600187604051610cae9190612b10565b90815260200160405180910390208281548110610cc757fe5b90600052602060002090600402016000820160009054906101000a900473ffffffffffffffffffffffffffffffffffffffff168160000160006101000a81548173ffffffffffffffffffffffffffffffffffffffff021916908373ffffffffffffffffffffffffffffffffffffffff16021790555060018201816001019080546001816001161561010002031660029004610d63929190611efb565b5060028201816002019080546001816001161561010002031660029004610d8b929190611efb565b5060038201816003019080546001816001161561010002031660029004610db3929190611efb565b509050508080600101915050610c39565b50600185604051610dd59190612b10565b908152602001604051809103902060018087604051610df49190612b10565b9081526020016040518091039020805490500381548110610e1157fe5b9060005260206000209060040201600080820160006101000a81549073ffffffffffffffffffffffffffffffffffffffff0219169055600182016000610e579190611f82565b600282016000610e679190611f82565b600382016000610e779190611f82565b5050600185604051610e899190612b10565b9081526020016040518091039020805480919060019003610eaa9190611fca565b508173ffffffffffffffffffffffffffffffffffffffff166108fc829081150290604051600060405180830381858888f19350505050158015610ef1573d6000803e3d6000fd5b5060019350505050610f11565b8080600101915050610b06565b50600090505b919050565b6000610f21856111b1565b15610f61576040517f08c379a0000000000000000000000000000000000000000000000000000000008152600401610f5890612c41565b60405180910390fd5b610f6a85611120565b3414610fab576040517f08c379a0000000000000000000000000000000000000000000000000000000008152600401610fa290612c21565b60405180910390fd5b610fb485611c33565b610ff3576040517f08c379a0000000000000000000000000000000000000000000000000000000008152600401610fea90612c61565b60405180910390fd5b6001856040516110039190612b10565b908152602001604051809103902060405180608001604052803373ffffffffffffffffffffffffffffffffffffffff168152602001868152602001858152602001848152509080600181540180825580915050906001820390600052602060002090600402016000909192909190915060008201518160000160006101000a81548173ffffffffffffffffffffffffffffffffffffffff021916908373ffffffffffffffffffffffffffffffffffffffff16021790555060208201518160010190805190602001906110d6929190611e7b565b5060408201518160020190805190602001906110f3929190611e7b565b506060820151816003019080519060200190611110929190611e7b565b5050505060019050949350505050565b600080600090505b6000805490508110156111aa5782805190602001206000828154811061114a57fe5b90600052602060002090600902016001016040516111689190612af9565b6040518091039020141561119d576000818154811061118357fe5b9060005260206000209060090201600701549150506111ac565b8080600101915050611128565b505b919050565b600080600090505b600080549050811015611248578280519060200120600082815481106111db57fe5b90600052602060002090600902016001016040516111f99190612af9565b6040518091039020141561123b576000818154811061121457fe5b906000526020600020906009020160080160009054906101000a900460ff1691505061124a565b80806001019150506111b9565b505b919050565b611257611ffc565b60008090505b6000805490508110156116965782805190602001206000828154811061127f57fe5b906000526020600020906009020160010160405161129d9190612af9565b6040518091039020141561168957600081815481106112b857fe5b9060005260206000209060090201604051806101200160405290816000820160009054906101000a900473ffffffffffffffffffffffffffffffffffffffff1673ffffffffffffffffffffffffffffffffffffffff1673ffffffffffffffffffffffffffffffffffffffff168152602001600182018054600181600116156101000203166002900480601f0160208091040260200160405190810160405280929190818152602001828054600181600116156101000203166002900480156113c15780601f10611396576101008083540402835291602001916113c1565b820191906000526020600020905b8154815290600101906020018083116113a457829003601f168201915b50505050508152602001600282018054600181600116156101000203166002900480601f0160208091040260200160405190810160405280929190818152602001828054600181600116156101000203166002900480156114635780601f1061143857610100808354040283529160200191611463565b820191906000526020600020905b81548152906001019060200180831161144657829003601f168201915b50505050508152602001600382018054600181600116156101000203166002900480601f0160208091040260200160405190810160405280929190818152602001828054600181600116156101000203166002900480156115055780601f106114da57610100808354040283529160200191611505565b820191906000526020600020905b8154815290600101906020018083116114e857829003601f168201915b50505050508152602001600482018054600181600116156101000203166002900480601f0160208091040260200160405190810160405280929190818152602001828054600181600116156101000203166002900480156115a75780601f1061157c576101008083540402835291602001916115a7565b820191906000526020600020905b81548152906001019060200180831161158a57829003601f168201915b50505050508152602001600582018054600181600116156101000203166002900480601f0160208091040260200160405190810160405280929190818152602001828054600181600116156101000203166002900480156116495780601f1061161e57610100808354040283529160200191611649565b820191906000526020600020905b81548152906001019060200180831161162c57829003601f168201915b5050505050815260200160068201548152602001600782015481526020016008820160009054906101000a900460ff161515151581525050915050611698565b808060010191505061125d565b505b919050565b60606001826040516116af9190612b10565b9081526020016040518091039020805480602002602001604051908101604052809291908181526020016000905b8282101561194b57838290600052602060002090600402016040518060800160405290816000820160009054906101000a900473ffffffffffffffffffffffffffffffffffffffff1673ffffffffffffffffffffffffffffffffffffffff1673ffffffffffffffffffffffffffffffffffffffff168152602001600182018054600181600116156101000203166002900480601f0160208091040260200160405190810160405280929190818152602001828054600181600116156101000203166002900480156117ef5780601f106117c4576101008083540402835291602001916117ef565b820191906000526020600020905b8154815290600101906020018083116117d257829003601f168201915b50505050508152602001600282018054600181600116156101000203166002900480601f0160208091040260200160405190810160405280929190818152602001828054600181600116156101000203166002900480156118915780601f1061186657610100808354040283529160200191611891565b820191906000526020600020905b81548152906001019060200180831161187457829003601f168201915b50505050508152602001600382018054600181600116156101000203166002900480601f0160208091040260200160405190810160405280929190818152602001828054600181600116156101000203166002900480156119335780601f1061190857610100808354040283529160200191611933565b820191906000526020600020905b81548152906001019060200180831161191657829003601f168201915b505050505081525050815260200190600101906116dd565b505050509050919050565b600080600090505b600080549050811015611a005782805190602001206000828154811061198057fe5b906000526020600020906009020160010160405161199e9190612af9565b604051809103902014156119f357600081815481106119b957fe5b906000526020600020906009020160000160009054906101000a900473ffffffffffffffffffffffffffffffffffffffff16915050611a02565b808060010191505061195e565b505b919050565b60003373ffffffffffffffffffffffffffffffffffffffff16611a2983611956565b73ffffffffffffffffffffffffffffffffffffffff1614611a7f576040517f08c379a0000000000000000000000000000000000000000000000000000000008152600401611a7690612ce1565b60405180910390fd5b611a8882611d6d565b15611b1c576000600183604051611a9f9190612b10565b908152602001604051809103902080549050611aba84611120565b0290506000611ac884611956565b90508073ffffffffffffffffffffffffffffffffffffffff166108fc839081150290604051600060405180830381858888f19350505050158015611b10573d6000803e3d6000fd5b50600192505050611b21565b600090505b919050565b600080600090505b600080549050811015611c2c57828051906020012060008281548110611b5057fe5b9060005260206000209060090201600101604051611b6e9190612af9565b60405180910390201415611c1f5760008181548110611b8957fe5b906000526020600020906009020160080160009054906101000a900460ff1615611be8576040517f08c379a0000000000000000000000000000000000000000000000000000000008152600401611bdf90612c41565b60405180910390fd5b600160008281548110611bf757fe5b9060005260206000209060090201600601600082825401925050819055506001915050611c2e565b8080600101915050611b2e565b505b919050565b600080600090505b600080549050811015611d6257828051906020012060008281548110611c5d57fe5b9060005260206000209060090201600101604051611c7b9190612af9565b60405180910390201415611d555760008181548110611c9657fe5b906000526020600020906009020160080160009054906101000a900460ff16158015611cdf57506000808281548110611ccb57fe5b906000526020600020906009020160060154135b611d1e576040517f08c379a0000000000000000000000000000000000000000000000000000000008152600401611d1590612c61565b60405180910390fd5b600160008281548110611d2d57fe5b9060005260206000209060090201600601600082825403925050819055506001915050611d68565b8080600101915050611c3b565b50600090505b919050565b600080600090505b600080549050811015611e7057828051906020012060008281548110611d9757fe5b9060005260206000209060090201600101604051611db59190612af9565b6040518091039020148015611df3575060008181548110611dd257fe5b906000526020600020906009020160080160009054906101000a900460ff16155b15611e6357600160008281548110611e0757fe5b906000526020600020906009020160080160006101000a81548160ff02191690831515021790555060008181548110611e3c57fe5b906000526020600020906009020160080160009054906101000a900460ff16915050611e76565b8080600101915050611d75565b50600090505b919050565b828054600181600116156101000203166002900490600052602060002090601f016020900481019282601f10611ebc57805160ff1916838001178555611eea565b82800160010185558215611eea579182015b82811115611ee9578251825591602001919060010190611ece565b5b509050611ef79190612060565b5090565b828054600181600116156101000203166002900490600052602060002090601f016020900481019282601f10611f345780548555611f71565b82800160010185558215611f7157600052602060002091601f016020900482015b82811115611f70578254825591600101919060010190611f55565b5b509050611f7e9190612060565b5090565b50805460018160011615610100020316600290046000825580601f10611fa85750611fc7565b601f016020900490600052602060002090810190611fc69190612060565b5b50565b815481835581811115611ff757600402816004028360005260206000209182019101611ff69190612085565b5b505050565b604051806101200160405280600073ffffffffffffffffffffffffffffffffffffffff168152602001606081526020016060815260200160608152602001606081526020016060815260200160008152602001600081526020016000151581525090565b61208291905b8082111561207e576000816000905550600101612066565b5090565b90565b6120f891905b808211156120f457600080820160006101000a81549073ffffffffffffffffffffffffffffffffffffffff02191690556001820160006120cb9190611f82565b6002820160006120db9190611f82565b6003820160006120eb9190611f82565b5060040161208b565b5090565b90565b60008135905061210a81612f11565b92915050565b600082601f83011261212157600080fd5b813561213461212f82612d6b565b612d3e565b9150808252602083016020830185838301111561215057600080fd5b61215b838284612ebe565b50505092915050565b60008135905061217381612f28565b92915050565b60006020828403121561218b57600080fd5b600082013567ffffffffffffffff8111156121a557600080fd5b6121b184828501612110565b91505092915050565b600080600080608085870312156121d057600080fd5b600085013567ffffffffffffffff8111156121ea57600080fd5b6121f687828801612110565b945050602085013567ffffffffffffffff81111561221357600080fd5b61221f87828801612110565b935050604085013567ffffffffffffffff81111561223c57600080fd5b61224887828801612110565b925050606085013567ffffffffffffffff81111561226557600080fd5b61227187828801612110565b91505092959194509250565b600080600080600080600060e0888a03121561229857600080fd5b600088013567ffffffffffffffff8111156122b257600080fd5b6122be8a828b01612110565b975050602088013567ffffffffffffffff8111156122db57600080fd5b6122e78a828b01612110565b965050604088013567ffffffffffffffff81111561230457600080fd5b6123108a828b01612110565b955050606088013567ffffffffffffffff81111561232d57600080fd5b6123398a828b01612110565b945050608088013567ffffffffffffffff81111561235657600080fd5b6123628a828b01612110565b93505060a06123738a828b016120fb565b92505060c06123848a828b01612164565b91505092959891949750929550565b600061239f83836128a8565b905092915050565b60006123b383836129fa565b905092915050565b6123c481612e6c565b82525050565b6123d381612e6c565b82525050565b60006123e482612dcc565b6123ee8185612e12565b93508360208202850161240085612d97565b8060005b8581101561243c578484038952815161241d8582612393565b945061242883612df8565b925060208a01995050600181019050612404565b50829750879550505050505092915050565b600061245982612dd7565b6124638185612e23565b93508360208202850161247585612da7565b8060005b858110156124b1578484038952815161249285826123a7565b945061249d83612e05565b925060208a01995050600181019050612479565b50829750879550505050505092915050565b6124cc81612e7e565b82525050565b6124db81612e7e565b82525050565b6000815460018116600081146124fe576001811461252357612567565b607f600283041661250f8187612e34565b955060ff1983168652808601935050612567565b600282046125318187612e34565b955061253c85612db7565b60005b8281101561255e5781548189015260018201915060208101905061253f565b82880195505050505b505092915050565b61257881612e8a565b82525050565b600061258982612ded565b6125938185612e61565b93506125a3818560208601612ecd565b80840191505092915050565b60006125ba82612de2565b6125c48185612e3f565b93506125d4818560208601612ecd565b6125dd81612f00565b840191505092915050565b60006125f5601b83612e50565b91507f647565446174652073686f756c64206e6f7420626520656d70747900000000006000830152602082019050919050565b6000612635601783612e50565b91507f6665652073686f756c64206e6f7420626520656d7074790000000000000000006000830152602082019050919050565b6000612675601f83612e50565b91507f6465736372697074696f6e2073686f756c64206e6f7420626520656d707479006000830152602082019050919050565b60006126b5601683612e50565b91507f69642073686f756c64206e6f7420626520656d707479000000000000000000006000830152602082019050919050565b60006126f5600e83612e50565b91507f666565206e6f7420656e6f7567680000000000000000000000000000000000006000830152602082019050919050565b6000612735600f83612e50565b91507f6576656e74206973206c6f636b656400000000000000000000000000000000006000830152602082019050919050565b6000612775601483612e50565b91507f68656164636f756e74206e6f7420656e6f7567680000000000000000000000006000830152602082019050919050565b60006127b5601d83612e50565b91507f7374617274446174652073686f756c64206e6f7420626520656d7074790000006000830152602082019050919050565b60006127f5601d83612e50565b91507f68656164636f756e742073686f756c64206e6f7420626520656d7074790000006000830152602082019050919050565b6000612835601883612e50565b91507f6e616d652073686f756c64206e6f7420626520656d70747900000000000000006000830152602082019050919050565b6000612875601b83612e50565b91507f796f7520617265206e6f7420746865206576656e74206f776e657200000000006000830152602082019050919050565b60006080830160008301516128c060008601826123bb565b50602083015184820360208601526128d882826125af565b915050604083015184820360408601526128f282826125af565b9150506060830151848203606086015261290c82826125af565b9150508091505092915050565b60006101208301600083015161293260008601826123bb565b506020830151848203602086015261294a82826125af565b9150506040830151848203604086015261296482826125af565b9150506060830151848203606086015261297e82826125af565b9150506080830151848203608086015261299882826125af565b91505060a083015184820360a08601526129b282826125af565b91505060c08301516129c760c086018261256f565b5060e08301516129da60e0860182612adb565b506101008301516129ef6101008601826124c3565b508091505092915050565b600061012083016000830151612a1360008601826123bb565b5060208301518482036020860152612a2b82826125af565b91505060408301518482036040860152612a4582826125af565b91505060608301518482036060860152612a5f82826125af565b91505060808301518482036080860152612a7982826125af565b91505060a083015184820360a0860152612a9382826125af565b91505060c0830151612aa860c086018261256f565b5060e0830151612abb60e0860182612adb565b50610100830151612ad06101008601826124c3565b508091505092915050565b612ae481612eb4565b82525050565b612af381612eb4565b82525050565b6000612b0582846124e1565b915081905092915050565b6000612b1c828461257e565b915081905092915050565b6000602082019050612b3c60008301846123ca565b92915050565b60006020820190508181036000830152612b5c81846123d9565b905092915050565b60006020820190508181036000830152612b7e818461244e565b905092915050565b6000602082019050612b9b60008301846124d2565b92915050565b60006020820190508181036000830152612bba816125e8565b9050919050565b60006020820190508181036000830152612bda81612628565b9050919050565b60006020820190508181036000830152612bfa81612668565b9050919050565b60006020820190508181036000830152612c1a816126a8565b9050919050565b60006020820190508181036000830152612c3a816126e8565b9050919050565b60006020820190508181036000830152612c5a81612728565b9050919050565b60006020820190508181036000830152612c7a81612768565b9050919050565b60006020820190508181036000830152612c9a816127a8565b9050919050565b60006020820190508181036000830152612cba816127e8565b9050919050565b60006020820190508181036000830152612cda81612828565b9050919050565b60006020820190508181036000830152612cfa81612868565b9050919050565b60006020820190508181036000830152612d1b8184612919565b905092915050565b6000602082019050612d386000830184612aea565b92915050565b6000604051905081810181811067ffffffffffffffff82111715612d6157600080fd5b8060405250919050565b600067ffffffffffffffff821115612d8257600080fd5b601f19601f8301169050602081019050919050565b6000819050602082019050919050565b6000819050602082019050919050565b60008190508160005260206000209050919050565b600081519050919050565b600081519050919050565b600081519050919050565b600081519050919050565b6000602082019050919050565b6000602082019050919050565b600082825260208201905092915050565b600082825260208201905092915050565b600081905092915050565b600082825260208201905092915050565b600082825260208201905092915050565b600081905092915050565b6000612e7782612e94565b9050919050565b60008115159050919050565b6000819050919050565b600073ffffffffffffffffffffffffffffffffffffffff82169050919050565b6000819050919050565b82818337600083830152505050565b60005b83811015612eeb578082015181840152602081019050612ed0565b83811115612efa576000848401525b50505050565b6000601f19601f8301169050919050565b612f1a81612e8a565b8114612f2557600080fd5b50565b612f3181612eb4565b8114612f3c57600080fd5b5056fea365627a7a7231582080ac7db1522fcbfef8cfe90e5cf3482eeb13a4d0ae3833a3c50218575a4285fe6c6578706572696d656e74616cf564736f6c634300050c0040",
  "source": "pragma solidity >=0.5.12;\r\npragma experimental ABIEncoderV2;\r\n\r\n\r\ncontract EventManager {\r\n    struct Event {\r\n        address payable organizer;\r\n        string id;\r\n        string name;\r\n        string description;\r\n        string startDate;\r\n        string dueDate;\r\n        int256 headcount;\r\n        uint256 fee;\r\n        bool claimed;\r\n    }\r\n\r\n    struct Attendee {\r\n        address payable buyer;\r\n        string firstName;\r\n        string lastName;\r\n        string email;\r\n    }\r\n\r\n    Event[] private EventLists;\r\n    mapping(string => Attendee[]) EventAttendee;\r\n\r\n    function createEvent(\r\n        string memory _id,\r\n        string memory _name,\r\n        string memory _description,\r\n        string memory _startDate,\r\n        string memory _dueDate,\r\n        int256 _headcount,\r\n        uint256 _fee\r\n    ) public payable returns (bool) {\r\n        require(bytes(_id).length != 0, \"id should not be empty\");\r\n        require(bytes(_name).length != 0, \"name should not be empty\");\r\n        require(\r\n            bytes(_description).length != 0,\r\n            \"description should not be empty\"\r\n        );\r\n        require(bytes(_startDate).length != 0, \"startDate should not be empty\");\r\n        require(bytes(_dueDate).length != 0, \"dueDate should not be empty\");\r\n        require(_fee >= 0, \"fee should not be empty\");\r\n        require(_headcount != 0, \"headcount should not be empty\");\r\n\r\n        for (uint256 i = 0; i < EventLists.length; i++) {\r\n            if (keccak256(bytes(EventLists[i].id)) == keccak256(bytes(_id))) {\r\n                return false;\r\n            }\r\n        }\r\n\r\n        EventLists.push(\r\n            Event({\r\n                id: _id,\r\n                fee: _fee,\r\n                organizer: msg.sender,\r\n                name: _name,\r\n                description: _description,\r\n                startDate: _startDate,\r\n                dueDate: _dueDate,\r\n                headcount: _headcount,\r\n                claimed: false\r\n            })\r\n        );\r\n        return true;\r\n    }\r\n\r\n    function getEventById(string memory _id)\r\n        public\r\n        view\r\n        returns (Event memory)\r\n    {\r\n        for (uint256 i = 0; i < EventLists.length; i++) {\r\n            if (keccak256(bytes(EventLists[i].id)) == keccak256(bytes(_id))) {\r\n                return EventLists[i];\r\n            }\r\n        }\r\n    }\r\n\r\n    function getAllEvent() public view returns (Event[] memory) {\r\n        return EventLists;\r\n    }\r\n\r\n    function getEventAttendeesById(string memory _id)\r\n        public\r\n        view\r\n        returns (Attendee[] memory)\r\n    {\r\n        return EventAttendee[_id];\r\n    }\r\n\r\n    function getEventFeeById(string memory _id) public view returns (uint256) {\r\n        for (uint256 i = 0; i < EventLists.length; i++) {\r\n            if (keccak256(bytes(EventLists[i].id)) == keccak256(bytes(_id))) {\r\n                return EventLists[i].fee;\r\n            }\r\n        }\r\n    }\r\n\r\n    function getEventClaimedById(string memory _id) public view returns (bool) {\r\n        for (uint256 i = 0; i < EventLists.length; i++) {\r\n            if (keccak256(bytes(EventLists[i].id)) == keccak256(bytes(_id))) {\r\n                return EventLists[i].claimed;\r\n            }\r\n        }\r\n    }\r\n\r\n    function getEventOwnerById(string memory _id)\r\n        public\r\n        view\r\n        returns (address payable)\r\n    {\r\n        for (uint256 i = 0; i < EventLists.length; i++) {\r\n            if (keccak256(bytes(EventLists[i].id)) == keccak256(bytes(_id))) {\r\n                return EventLists[i].organizer;\r\n            }\r\n        }\r\n    }\r\n\r\n    function addHeadcount(string memory _id) private returns (bool) {\r\n        for (uint256 i = 0; i < EventLists.length; i++) {\r\n            if (keccak256(bytes(EventLists[i].id)) == keccak256(bytes(_id))) {\r\n                require(!EventLists[i].claimed, \"event is locked\");\r\n                EventLists[i].headcount += 1;\r\n                return true;\r\n            }\r\n        }\r\n    }\r\n\r\n    function subHeadcount(string memory _id) private returns (bool) {\r\n        for (uint256 i = 0; i < EventLists.length; i++) {\r\n            if (keccak256(bytes(EventLists[i].id)) == keccak256(bytes(_id))) {\r\n                require(\r\n                    !EventLists[i].claimed && EventLists[i].headcount > 0,\r\n                    \"headcount not enough\"\r\n                );\r\n                EventLists[i].headcount -= 1;\r\n                return true;\r\n            }\r\n        }\r\n        return false;\r\n    }\r\n\r\n    function joinEvent(\r\n        string memory _eventId,\r\n        string memory _firstName,\r\n        string memory _lastName,\r\n        string memory _email\r\n    ) public payable returns (bool) {\r\n        require(!getEventClaimedById(_eventId), \"event is locked\");\r\n        require(msg.value == getEventFeeById(_eventId), \"fee not enough\");\r\n        require(subHeadcount(_eventId), \"headcount not enough\");\r\n        EventAttendee[_eventId].push(\r\n            Attendee({\r\n                buyer: msg.sender,\r\n                firstName: _firstName,\r\n                lastName: _lastName,\r\n                email: _email\r\n            })\r\n        );\r\n        return true;\r\n    }\r\n\r\n    function leaveEvent(string memory _eventId) public payable returns (bool) {\r\n        require(!getEventClaimedById(_eventId), \"event is locked\");\r\n\r\n        for (uint256 i = 0; i < EventAttendee[_eventId].length; i++) {\r\n            if (EventAttendee[_eventId][i].buyer == msg.sender) {\r\n                addHeadcount(_eventId);\r\n\r\n                // get user info\r\n                address payable currentAttendee = EventAttendee[_eventId][i]\r\n                    .buyer;\r\n                uint256 amount = getEventFeeById(_eventId);\r\n                // shift the array\r\n                for (\r\n                    uint256 j = i;\r\n                    j < EventAttendee[_eventId].length - 1;\r\n                    j++\r\n                ) {\r\n                    EventAttendee[_eventId][j] = EventAttendee[_eventId][j + 1];\r\n                }\r\n                delete EventAttendee[_eventId][EventAttendee[_eventId].length -\r\n                    1];\r\n\r\n                EventAttendee[_eventId].length--;\r\n                //pay user after delete\r\n                currentAttendee.transfer(amount);\r\n                return true;\r\n            }\r\n        }\r\n        return false;\r\n    }\r\n\r\n    function setClaimed(string memory _id) private returns (bool) {\r\n        for (uint256 i = 0; i < EventLists.length; i++) {\r\n            if (\r\n                (keccak256(bytes(EventLists[i].id)) == keccak256(bytes(_id))) &&\r\n                !EventLists[i].claimed\r\n            ) {\r\n                EventLists[i].claimed = true;\r\n                return EventLists[i].claimed;\r\n            }\r\n        }\r\n        return false;\r\n    }\r\n\r\n    function claimEvent(string memory _eventId) public payable returns (bool) {\r\n        //EventManager EM = EventManager(Eventaddr);\r\n        require(\r\n            getEventOwnerById(_eventId) == msg.sender,\r\n            \"you are not the event owner\"\r\n        );\r\n        if (setClaimed(_eventId)) {\r\n            uint256 amount = getEventFeeById(_eventId) *\r\n                EventAttendee[_eventId].length;\r\n            address payable owner = getEventOwnerById(_eventId);\r\n            owner.transfer(amount);\r\n            return true;\r\n        }\r\n        return false;\r\n    }\r\n}\r\n",
  "sourcePath": "D:/cs4389-solidity-project/contracts/EventManager.sol",
  "compiler": {
    "name": "solc",
    "version": "0.5.12+commit.7709ece9.Emscripten.clang"
  },
  "schemaVersion": "3.0.19",
  "updatedAt": "2020-04-26T18:43:09.869Z",
  "networkType": "ethereum",
  "devdoc": {
    "methods": {}
  },
  "userdoc": {
    "methods": {}
  }
}